# 03. 비관적 vs. 낙관적 동시성 제어

동시성 제어를 위해, 앞에서 설명한 트랜잭션 고립화 수준을 변경하는 DBMS 기능을 사용할 수 없는 경우가 있다.
특히, n-Tier 구조가 지배적인 요즘 같은 개발 환경에서 더욱 그렇고, 그럴 때는 트랜잭션의 동시성 제어를 개발자가 직접 구현해야만 한다.

#### ✅ 동시성 제어는 비관적 동시성 제어와 낙관적 동시성 제어로 나뉜다
- **비관적** 동시성 제어(Pessimistic Concurrency Control)는 사용자들이 같은 데이터를 동시에 수정할 것이라고 가정한다.
    - 한 사용자가 데이터를 읽는 시점에 Lock을 걸고 조회 또는 갱신처리가 완료될 때까지 이를 유지한다.
    - Locking은 첫 번째 사용자가 트랜잭션을 완료하기 전까지 다른 사용자들이 그 데이터를 수정할 수 없게 만들기 때문에 비관적 동시성 제어를 잘못하면 동시성을 저해 받게 된다.
      "잘못 사용하면"이라고 한 데에 주목하자. 잘 사용하면 약이 될 수도 있다는 뜻이며 글을 계속 읽다 보면 이해하게 될 것이다.
- **낙관적** 동시성 제어(Optimistic Concurrency Control)는 사용자들이 같은 데이터를 동시에 수정하지 않을 것이라고 가정한다.
    - 데이터를 읽을 때 Lock을 설정하지 않는다.
    - 낙관적 입장에 섰다고 해서 동시 트랜잭션에 의한 데이터의 잘못된 갱신을 신경쓰지 않아도 된다는 것은 절대 아니다.
      읽는 시점에 Lock을 사용하지 않았지만, 데이터를 수정하고자 하는 시점에 앞서 읽은 데이터가 다른 사용자에 의해 변경되었는지를 반드시 검사해야 한다.

#### ✅ 낙관적 동시성 제어를 사용하면 Lock이 유지되는 시간이 매우 짧아져 동시성을 높이는 데에 유리하다
- 하지만 다른 사용자가 같은 데이터를 변경했는지 검사하고 그에 따라 분기해 나가야 하는 귀찮은 처리절차가 뒤따른다.
- 예를 들어, 온라인 쇼핑몰에서 특정 상품을 조회해서 주문을 시작하고 결제를 완료하는 순간까지를 하나의 트랜잭션으로 정의했다고 가정하자.
    - 상품 조회 시에는 1,000원이었던 상품이 주문을 진행하는 동안 가격이 수정돼서 결제를 완료하는 순간에는 1,200원일 수 있다.
    - 따라서 최종 결제 버튼을 클릭하는 순간 상품 가격의 변경 여부를 체크하고, 변경되었다면 해당 주문을 취소시키거나 사용자에게 변경사실을 알리고 처리방향을 확인받는 프로세스를 거쳐야만 한다.
    - 물론 업무적으로 '주문'을 시작하는 시점의 가격을 기준으로 주문을 처리하는 것이 옳다면 그에 맞는 단계에서 일관성 체크를 해서 처리하면 된다.

  ```
  insert into 주문
  select :상품코드, :고객ID, :주문일시, :상점번호, ..
  from   상품
  where  상품코드 = :상품코드
  and    가격 = :가격 ;        -- 주문을 시작한 시점 가격

  if sql%rowcount = 0 then
    alert('상품가격이 변경되었습니다.');
  end if;
  ```

<br/>

## (1) 비관적 동시성 제어
구체적으로 동시성을 제어하기 위해 어떻게 코딩해야 하는지 구현예시를 살펴보자. 먼저, 비관적 동시성 제어를 위한 기본적인 구현 패턴이다.

우수 고객을 대상으로 적립포인트를 추가시켜주는 이벤트를 실시한다고 가정하자.
고객의 다양한 실적정보를 읽고 복잡한 산출공식을 이용해 적립포인트를 계산하는 동안(아래 select문 이후, update문 이전) 다른 트랜잭션이 같은 고객 레코드를 변경한다면 문제가 발생할 수 있다.

```
select  적립포인트, 방문횟수, 최근방문일시, 구매실적 from 고객
where   고객번호 = :cust_num for update;

-- 새로운 적립포인트 계산

update 고객 set 적립포인트 = :적립포인트 where 고객번호 = :cust_num
```

하지만 위에서와 같이 select문에 for update를 사용해서 해당 고객 레코드에 Lock을 걸어둔다면 데이터가 잘못 갱신되는 문제를 방지할 수 있다.

select 시점에 Lock을 거는 비관적 동시성 제어는 자칫 시스템 동시성을 심각하게 떨어뜨릴 우려가 있다.
그러므로 wait 또는 nowait 옵션을 함께 사용하면 Lock을 얻기 위해 무한정 기다리지 않아도 된다.
```
for update nowait ---> 대기없이 Exception(ORA-00054)을 던짐
for update wait 3 ---> 3초 대기 후 Exception(ORA-30006)을 던짐
```
wait 또는 nowait 옵션을 사용하면, 다른 트랜잭션에 의해 Lock이 걸렸을 때 Exception을 만나게 되므로 "다른 사용자에 의해 변경 중이므로 다시 시도하십시오"라는 메시지를 출력하면서
트랜잭션을 종료할 수 있다. 따라서 오히려 동시성을 증가시키게 된다.

금융권에서 개발하는 프로그래머들은 for update문을 자주 사용한다. 금전을 다루는 업무가 아니더라도 면밀하게 분석해 보면 이런 식으로 동시성 제어를 해야만 하는 경우가 부지기수다.

<br/>

## (2) 낙관적 동시성 제어
이제 낙관적 동시성 제어 패턴을 살펴 볼 차례다. 아래는 고객번호를 제외하고 4개 컬럼을 참조했을 때의 예시다.
```
select  적립포인트, 방문횟수, 최근방문일시, 구매실적 into :a, :b, :c, :d
from    고객
where   고객번호 = :cust_num;

--- 새로운 적립포인트 계산

update  고객 set 적립포인트 = :적립포인트
where   고객번호      = :cust_num
and     적립포인트      = :a
and     방문횟수       = :b
and     최근방문일시    = :c
and     구매실적       = :d  ;

if sql%rowcount = 0 then
  alert('다른 사용자에 의해 변경되었습니다.');
end if;
```

앞선 select 문에서 읽은 컬럼들이 매우 많다면 update문에 조건절을 일일이 기술하는 것이 여간 귀찮은 일이 아닐 것이다.
만약 update 대상 테이블에 최종변경일시를 관리하는 컬럼이 있다면 이를 조건절에 넣어 간단히 해당 레코드의 갱신여부를 판단할 수 있다.

```
select  적립포인트, 방문횟수, 최근방문일시, 구매실적, 변경일시
into    :a, :b, :c, :d, :mod_at
from    고객
where   고객번호 = :cust_num;

--- 새로운 적립포인트 계산

update  고객 set 적립포인트 = :적립포인트, 변경일시 = SYSDATE
where   고객번호 = :cust_num
and     변경일시 = :mod_at;  → 최종 변경일시가 앞서 읽은 값과 같은지 비교

if sql%rowcount = 0 then
  alert('다른 사용자에 의해 변경되었습니다.');
end if;
```
낙관적 동시성 제어에서도 update 전에 아래 select문(nowait 옵션을 사용한 것에 주목)을 한번 더 수행한다면 다른 트랜잭션에 의해 설정된 Lock 때문에 동시성이 저하되는 것을 예방할 수 있다.

```
select  고객번호
from    고객
where   고객번호 = :cust_num
and     변경일시 = :mod_at
for update nowait;
```
오라클 10g부터 낙관적 동시성 제어를 위해 활용할 수 있는 기능을 한가지 소개하려고 한다.
위에서처럼 별도의 Timestamp 컬럼을 두고 동시성 제어를 하려면 테이블 레코드를 insert/update/delete 할 때마다 변경일시 컬럼을 변경하도록 빠짐없이 구현해야만 한다.
그런데 애플리케이션을 통하지 않고 사용자가 직접 값을 바꾸는 일이 생긴다면, 변경일시 컬럼까지 변경하는 규칙을 지키지 않았을 때 Lost Update 문제가 다시 재발하게 된다.

오라클 10g부터 제공되는 Pseudo 컬럼 ora_rowscn을 활용한다면 Timestamp를 오라클이 직접 관리해 주므로 쉽고 완벽하게 동시성을 제어할 수 있다.

```
SQL> select e.empno, e.ename, ORA_ROWSCN, SCN_TO_TIMESTAMP(ORA_ROWSCN)
  2  from   emp e;
```
ora_rowscn Pseudo 컬럼을 이용하면 특정 레코드가 변경 후 커밋된 시점을 추적할 수 있다. 따라서 변경일시 같은 컬럼을 따로 디자인하지 않더라도 동시성 제어에 활용할 수 있다.
단, 이 값을 이용해 정확한 동시성 제어를 하려면 테이블을 생성할 때 아래와 같은 옵션을 사용해야 한다. 이 옵션을 사용해야 로우 단위로 SCN을 기록하기 때문이다.
```
create table t
ROWDEPENDENCIES
as
select * from scott.emp;
```
기본 값은 NoRowDependencies인데, 이때는 ora_rowscn 컬럼에 블록 SCN이 출력된다. 따라서 기본 값을 사용할 때는 한 레코드만 변경해도 블록 내 모든 레코드의 ora_rowscn이 변경되는 셈이 된다.

앞에서 보았던 낙관적 동시성 제어 예제를 ora_rowscn을 이용하도록 바꿔보면 아래와 같다.
```
select  적립포인트, 방문횟수, 최근방문일시, 구매실적, ora_rowscn
into    :a, :b, :c, :d, :rowscn
from    고객
where   고객번호 = :cust_num;

-- 새로운 적립포인트 계산

update  고객 set 적립포인트 = :적립포인트
where   고객번호 = :cust_num
and     ora_rowscn = :rowscn;

if sql%rowcount = 0 then
  alert('다른 사용자에 의해 변경되었습니다.');
end if;
```
ora_rowscn과 scn_to_timestamp 함수를 이용하면 특정 레코드의 갱신시점을 알 수 있으므로 앞으로 테이블을 설계할 때 변경일시 컬럼을 두지 않아도 되겠다고 생각할 수 있다.
하지만 기억해야 할 중요한 사실이 하나 있다. ora_rowscn은 영구히 저장되는 값이지만 이를 시간정보로 변환하는 데에는 정해진 기한이 있다는 점이다.

SMON 프로세스는 내부적으로 SCN과 Timestamp 간 매핑 정보를 관리하며, 오라클은 이 매핑 정보(sys.smon_scn_time 테이블)를 이용해 scn_to_timestamp 함수를 구현했다.
그리고 이 매핑 테이블의 보관주기는 5일이다. 따라서 5일 이전에 갱신된 레코드의 rowscn을 가지고 Timestamp 값을 찾으려고 하면 매핑 테이블에서 값을 찾을 수 없어 에러(ORA-08181)가 발생하게 된다.

결론적으로 말해, 변경일시 컬럼을 단순히 동시성 제어를 위해서만 사용한다면 ora_rowscn을 활용하는 것이 효과적이지만 변경일시 정보를 다른 용도로도 활용해야 한다면 기존 방식대로 구현해야 한다.

참고로, RowDependencies 옵션을 주고 테이블을 생성한 후에 Block Dump를 떠 보면 아래처럼 각 Row마다 SCN이 찍혀 있는 것을 확인할 수 있다.
```
## Block Dump ###################################################################
tab 0,  row 0,  @0xlf54
tl: 44  fb: --H-FL--  lb: 0x0  cc: 8
dscn 0x0000.0b1b5f31
col  0: [ 3]  c2 4a 46
col  1: [ 5]  53 4d 49 54 48
col  2: [ 5]  43 4c 45 52 4b
col  3: [ 3]  c2 50 03
col  4: [ 7]  77 b4 0c 11 01 01 01
col  5: [ 2]  c2 09
col  6: * NULL*
col  7: [ 2]  c1 15
##################################################################################
```